:020000040800F2
:1000000000500020B91F0008FD1F00087F260008CF
:10001000FD1F0008FD1F0008FD1F00080000000074
:10002000000000000000000000000000FD1F0008AC
:10003000FD1F000800000000FD1F00082D2700081C
:10004000FD1F0008FD1F0008FD1F0008FD1F000820
:10005000FD1F0008FD1F0008FD1F0008FD1F000810
:10006000FD1F0008FD1F0008FD1F0008FD1F000800
:10007000FD1F0008FD1F0008FD1F0008FD1F0008F0
:10008000FD1F0008FD1F0008FD1F0008FD1F0008E0
:10009000FD1F0008FD1F0008FD1F0008FD1F0008D0
:1000A000FD1F0008FD1F0008FD1F0008FD1F0008C0
:1000B000FD1F0008FD1F0008FD1F0008FD1F0008B0
:1000C000FD1F0008FD1F0008FD1F0008FD1F0008A0
:1000D000FD1F0008FD1F0008FD1F0008FD1F000890
:1000E000FD1F0008FD1F0008FD1F000800000000A4
:1000F0000000000000000000000000000000000000
:1001000000000000000000005FF808F110B5054C89
:10011000237833B9044B13B10448AFF300800123B3
:10012000237010BD10020020000000009895000808
:10013000084B10B51BB108490848AFF300800848C8
:10014000036803B910BD074B002BFBD0BDE810407E
:10015000184700BF00000000140200209895000816
:100160000C0200200000000080B582B000AF034602
:10017000FB71FB79184602F017FA00BF0837BD463D
:1001800080BD00BF80B483B000AF78600B46FB70C9
:100190007B68FA781A70012318460C37BD4680BC7C
:1001A000704700BF80B485B000AF7860396000232D
:1001B000FB600AE07B685A1C7A603A68511C39601F
:1001C00012781A70FB680133FB603B681B78002BC8
:1001D000F0D1FB6818461437BD4680BC704700BF9D
:1001E00080B586B000AFF8607A603B600B46FB726A
:1001F00000237B617B68013B7B603B68092B1DD939
:100200003B681D4AA2FB0323DB08F97A7A68F86889
:10021000FFF7E6FF78617B69FA681344FB6010E042
:10022000FB7A1946F868FFF7ADFFFB680133FB6006
:100230007B6901337B617B68013B7B607B68002BC2
:10024000EEDC39680C4BA3FB0123DA0813469B0054
:1002500013445B00CA1AD3B23033DBB21946F868D4
:10026000FFF790FF02467B6913447B617B69184668
:100270001837BD4680BD00BFCDCCCCCC80B586B094
:1002800000AFF8607A603B600B46FB7200237B6135
:100290003B68002B03DA3B685B423B6101E03B6853
:1002A0003B617B68013B7B603B69092B1FD93B6845
:1002B000002B0CDA3B692E4AA2FB0323DB085B42CE
:1002C000F97A7A68F868FFF7D9FF78610AE03B6944
:1002D000274AA2FB0323DB08F97A7A68F868FFF75C
:1002E000CDFF78617B69FA681344FB6025E03B68C9
:1002F000002B11DA7B68013B7B600DE0FB7A19462D
:10030000F868FFF73FFFFB680133FB607B6901334F
:100310007B617B68013B7B607B68002BEEDC3B688C
:10032000002B0ADA2D21F868FFF72CFF02467B69C3
:1003300013447B61FB680133FB6039690C4BA3FB01
:100340000123DA0813469B0013445B00CA1AD3B298
:100350003033DBB21946F868FFF714FF02467B69B9
:1003600013447B617B6918461837BD4680BD00BFCA
:10037000CDCCCCCC80B588B002AFF8607A601A469C
:100380000B46FB721346BB7200237B617B68013B0B
:100390007B603B6A1B09002B20D03B6A1B09BA7AA1
:1003A000F97A009313467A68F868FFF7E3FF02468C
:1003B0007B6913447B617B69FA681344FB6010E03E
:1003C000FB7A1946F868FFF7DDFEFB680133FB6036
:1003D0007B6901337B617B68013B7B607B68002B21
:1003E000EEDC3B6A03F00F03092B0BD83B6ADBB250
:1003F00003F00F03DBB23033DBB21946F868FFF7C6
:10040000C1FE19E0BB7A002B0BD03B6ADBB203F0D4
:100410000F03DBB23733DBB21946F868FFF7B2FEE1
:100420000AE03B6ADBB203F00F03DBB25733DBB207
:100430001946F868FFF7A6FE7B6901337B617B698B
:1004400018461837BD4680BD80B58AB002AFF86047
:10045000B9607A603B600023BB6100237B61FB686D
:10046000002B00F0FC80FB6800221A70F7E07B682C
:100470001B78252B0BD0FB685A1CFA607A68511C3C
:10048000796012781A707B6901337B61E7E07B68E1
:1004900001331B78252B0BD1FB685A1CFA602522EF
:1004A0001A707B6802337B607B6901337B61D6E025
:1004B0002023FB770023BB777B6801337B607B685D
:1004C0001B78302B14D13023FB777B6801337B60A2
:1004D0000EE0BB7F1A46920013445B00DAB27B68E1
:1004E0001B781344DBB2303BBB777B6801337B6006
:1004F0007B681B782F2B03D97B681B78392BE8D9B5
:10050000BA7F7B6913441A46BB689A4205D9BB6817
:10051000DAB27B69DBB2D31ABB777B681B78583BB6
:10052000202B00F28E8001A252F823F0FD05000876
:100530004306000843060008430600084306000877
:100540004306000843060008430600084306000867
:1005500043060008430600082D060008B105000800
:100560004306000843060008430600084306000847
:10057000B1050008430600084306000843060008CA
:100580004306000843060008430600084306000827
:100590004306000843060008190600084306000841
:1005A000C90500084306000843060008E1050008E5
:1005B000B87F3B681A1D3A601B68F97F0246F868ED
:1005C000FFF75CFEB8613FE0B87F3B681A1D3A60F8
:1005D0001B68F97F0246F868FFF702FEB86133E056
:1005E000B87F3B681A1D3A601B68F97F00930023AF
:1005F0000246F868FFF7BEFEB86125E0B87F3B68A9
:100600001A1D3A601B68F97F009301230246F868BF
:10061000FFF7B0FEB86117E03B681A1D3A601B682F
:100620001946F868FFF7BEFDB8610DE03B681A1D7A
:100630003A601B68DBB21946F868FFF7A3FDB861A2
:1006400002E04FF0FF3325E07B6801337B60BB693C
:10065000FA681344FB607A69BB6913447B617B6869
:100660001B78002B04D07A69BB689A42FFF4FFAE76
:100670007A69BB689A4203D2FB6800221A7008E0CC
:10068000FB68013BFB60FB6800221A707B69013B41
:100690007B617B6918462037BD4680BD0CB480B5B0
:1006A00084B000AF7860396007F11C03BB60BB68A1
:1006B000BA6939687868FFF7C7FEF860FB681846C2
:1006C0001037BD46BDE8804002B0704780B584B0A9
:1006D00000AFF860B9607A607B68BA686421F86836
:1006E000FFF7B2FE034618461037BD4680BD00BF77
:1006F000B0B5A6B000AFF860B9607A60144B07F1EE
:1007000010041D460FCD0FC40FCD0FC42B682360FE
:1007100007F134037A68B9681846FFF7D7FF034634
:10072000632B09DD0B4B1B68DA6807F110031146D8
:10073000184600F097F8FEE707F13403F968184609
:1007400000F090F8034618469837BD46B0BD00BF8C
:10075000649100088C00002080B582B000AF786002
:100760003960064B1B689B683A6879681846FFF742
:10077000BFFF034618460837BD4680BD8C000020E9
:100780000EB480B585B000AF786007F12003BB6080
:10079000BA68F9697868FFF7ABFFF860FB6818463C
:1007A0001437BD46BDE8804003B070470FB480B534
:1007B00082B000AF07F114033B6039683869FFF776
:1007C000CBFF78607B6818460837BD46BDE880409F
:1007D00004B070470EB480B585B000AF786007F103
:1007E0002003BB60BA68F9697868FFF76FFFF860AB
:1007F000FB6818461437BD46BDE8804003B070471B
:1008000080B582B000AF7860054B1B689B681946C5
:10081000786800F027F8034618460837BD4680BDC3
:100820008C00002080B582B000AF786039600C4B3E
:100830001B689A683B689A4205D0094B1B68DA68C6
:100840003B689A4206D17B68DBB21846FFF78CFC06
:100850007B6801E04FF0FF3318460837BD4680BD86
:100860008C00002080B584B000AF78603960002330
:10087000FB6012E07B681B7839681846FFF7D2FFEF
:100880000346B3F1FF3F02D14FF0FF330AE0FB68AC
:100890000133FB607B6801337B607B681B78002B36
:1008A000E8D1FB6818461037BD4680BD80B582B0E0
:1008B00000AF78607B682F4A934208D10121042061
:1008C00000F0F2FD0021042000F0EEFD4EE07B6818
:1008D000294A934208D10121082000F0E5FD0021BA
:1008E000082000F0E1FD41E07B68244A934208D1F2
:1008F0000121102000F0D8FD0021102000F0D4FDCF
:1009000034E07B681E4A934208D10121202000F088
:10091000CBFD0021202000F0C7FD27E07B68194AAD
:10092000934208D10121402000F0BEFD002140206B
:1009300000F0BAFD1AE07B68134A934208D1012106
:10094000802000F0B1FD0021802000F0ADFD0DE021
:100950007B680E4A934209D101214FF4807000F068
:10096000A3FD00214FF4807000F09EFD00BF08370A
:10097000BD4680BD00080140000C01400010014050
:100980000014014000180140001C014000200140FB
:1009900080B500AF0121012000F086FD002101207B
:1009A00000F082FD00BF80BD80B489B000AF7860E8
:1009B00039600023FB6100233B610023BB610023FE
:1009C000FB6000237B610023BB603B68DB7803F0A6
:1009D0000F03FB613B68DB7803F01003002B05D0AD
:1009E0003B689B781A46FB691343FB613B681B8895
:1009F000DBB2002B44D07B681B687B610023BB61AA
:100A000038E00122BB6902FA03F3FB603B681B88F4
:100A10001A46FB6813403B613A69FB689A4226D14B
:100A2000BB699B00FB600F22FB6802FA03F3BB600B
:100A3000BB68DB437A6913407B61FA69FB6802FAA1
:100A400003F37A6913437B613B68DB78282B05D17C
:100A50000122BB699A407B685A6108E03B68DB78F9
:100A6000482B04D10122BB699A407B681A61BB699B
:100A70000133BB61BB69072BC3D97B687A691A60F4
:100A80003B681B88FF2B46D97B685B687B61002332
:100A9000BB613AE0BB690833012202FA03F3FB6051
:100AA0003B681B881A46FB6813403B613A69FB6848
:100AB0009A4227D1BB699B00FB600F22FB6802FAB8
:100AC00003F3BB60BB68DB437A6913407B61FA695F
:100AD000FB6802FA03F37A6913437B613B68DB78B6
:100AE000282B05D1BB69083301229A407B685A61E3
:100AF0003B68DB78482B05D1BB69083301229A405B
:100B00007B681A61BB690133BB61BB69072BC1D923
:100B10007B687A695A6000BF2437BD4680BC704745
:100B200080B483B000AF78607B684FF6FF721A80A4
:100B30007B6802229A707B680422DA7000BF0C374F
:100B4000BD4680BC704700BF80B485B000AF786000
:100B50000B467B800023FB737B689A687B8813407D
:100B6000002B02D00123FB7301E00023FB73FB7B0E
:100B700018461437BD4680BC704700BF80B483B0B0
:100B800000AF78607B689B689BB218460C37BD4607
:100B900080BC704780B485B000AF78600B467B8026
:100BA0000023FB737B68DA687B881340002B02D03C
:100BB0000123FB7301E00023FB73FB7B1846143712
:100BC000BD4680BC704700BF80B483B000AF786082
:100BD0007B68DB689BB218460C37BD4680BC70470B
:100BE00080B483B000AF78600B467B807A887B68E6
:100BF0001A6100BF0C37BD4680BC704780B483B01B
:100C000000AF78600B467B807A887B685A6100BFB2
:100C10000C37BD4680BC704780B483B000AF7860AD
:100C20000B467B8013467B707B78002B03D07A8841
:100C30007B681A6102E07A887B685A6100BF0C37D2
:100C4000BD4680BC704700BF80B483B000AF786001
:100C50000B467B807A887B68DA6000BF0C37BD4624
:100C600080BC704780B485B000AF78600B467B8055
:100C70004FF48033FB607B88FA681343FB607B682A
:100C8000FA689A617A887B689A617B68FA689A61E7
:100C90007B689B69FB607B689B69FB6000BF1437C6
:100CA000BD4680BC704700BF80B485B000AF03462E
:100CB0000A46FB711346BB710023FB600C4B1B689B
:100CC000FB60FA684FF680731340FB60FB791B01F1
:100CD000FA681343FB60BB79FA681343FB60044A6C
:100CE000FB68136000BF1437BD4680BC704700BF6F
:100CF0000000014080B483B000AF0346FB71044A9A
:100D0000FB79136000BF0C37BD4680BC704700BF45
:100D10001C00204280B487B000AF78600B46FB70A7
:100D200000233B610023FB6000237B610023BB6049
:100D30007B68002B03DA2E4BDB697B6102E02C4BD6
:100D40005B687B617B681B0C03F00F03BB607B68F7
:100D50009BB23B617B6803F44013B3F5401F0AD19B
:100D60007B6923F070637B61214A214B5B6823F030
:100D70007063536021E07B6803F48013002B0ED076
:100D80000322BB6802FA03F3FB60FB68DB437A696A
:100D900013407B617B6943F070637B610DE07B688E
:100DA0005B0D1B013A6902FA03F3DB437A691340D6
:100DB0007B617B6943F070637B61FB78002B08D01B
:100DC0007B685B0D1B013A6902FA03F37A691343EE
:100DD0007B617B68002B03DA054A7B69D36102E003
:100DE000034A7B69536000BF1C37BD4680BC704717
:100DF0000000014090B484B000AF03460A46FB7186
:100E00001346BB710023FB60BB7903F003039B0017
:100E10000F2202FA03F3FB601649BB799B08DBB291
:100E20001846144ABB799B08DBB2023352F82320E0
:100E3000FB68DB431A40831C41F823200D48BB7933
:100E40009B08DBB21C460B4ABB799B08DBB2023322
:100E500052F82320F979BB7903F003039B0001FAD0
:100E600003F31A43A31C40F8232000BF1037BD46EC
:100E700090BC70470000014080B483B000AF786040
:100E8000034A7B68136000BF0C37BD4680BC7047C7
:100E9000DC00204280B400AF134A134B1B6843F0C0
:100EA000010313601049104B5A68104B13404B60FC
:100EB0000D4A0D4B1B6823F0847323F480331360B9
:100EC000094A094B1B6823F480231360064A064B2A
:100ED0005B6823F4FE035360034B4FF41F029A60D8
:100EE00000BFBD4680BC7047001002400000FFF804
:100EF00080B483B000AF7860134A134B1B6823F4AF
:100F000080331360104A104B1B6823F48023136056
:100F10007B68B3F5803F03D0B3F5802F07D00DE099
:100F2000094A094B1B6843F48033136006E0064A04
:100F3000054B1B6843F4A023136000BF00BF0C37B0
:100F4000BD4680BC704700BF0010024080B582B033
:100F500000AF00233B600023FB710023BB713120F5
:100F600000F00EFB0346BB713B6801333B603B68FE
:100F7000B3F5A06F02D0BB79002BF0D0312000F088
:100F8000FFFA0346002B02D00123FB7101E000238E
:100F9000FB71FB7918460837BD4680BD80B485B02B
:100FA00000AF0346FB710023FB600A4B1B68FB602C
:100FB000FB6823F0F803FB60FB79DB00FA6813435E
:100FC000FB60044AFB68136000BF1437BD4680BC59
:100FD000704700BF0010024080B483B000AF0346EA
:100FE000FB71044AFB79136000BF0C37BD4680BC1F
:100FF000704700BF0000424280B485B000AF786007
:1010000039600023FB600A4B5B68FB60FB6823F4DC
:101010007C13FB607A683B681343FA681343FB60F8
:10102000034AFB68536000BF1437BD4680BC70475D
:101030000010024080B483B000AF0346FB71044A45
:10104000FB79136000BF0C37BD4680BC704700BF02
:101050006000424280B485B000AF78600023FB603E
:10106000094B5B68FB60FB6823F00303FB60FA68D5
:101070007B681343FB60044AFB68536000BF14376E
:10108000BD4680BC704700BF0010024080B400AF76
:10109000044B5B68DBB203F00C03DBB21846BD46C1
:1010A00080BC70470010024080B485B000AF78600B
:1010B0000023FB60094B5B68FB60FB6823F0F003D7
:1010C000FB60FA687B681343FB60044AFB6853606B
:1010D00000BF1437BD4680BC704700BF00100240FF
:1010E00080B485B000AF78600023FB60094B5B687B
:1010F000FB60FB6823F4E063FB60FA687B681343E2
:10110000FB60044AFB68536000BF1437BD4680BCD7
:10111000704700BF0010024080B485B000AF786017
:101120000023FB60094B5B68FB60FB6823F46053A2
:10113000FB607B68DB00FA681343FB60034AFB68D3
:10114000536000BF1437BD4680BC7047001002409A
:1011500080B483B000AF03460A46FB711346BB71EF
:10116000BB79002B08D00C490B4B1B78DAB2FB790A
:101170001343DBB20B7009E00749074B1B78DAB267
:10118000FB79DB43DBB21340DBB20B7000BF0C37E3
:10119000BD4680BC704700BF0910024080B483B0D8
:1011A00000AF7860034A7B68136000BF0C37BD4610
:1011B00080BC7047D800424280B485B000AF7860F0
:1011C0000023FB60094B5B68FB60FB6823F4404332
:1011D000FB60FA687B681343FB60044AFB6853605A
:1011E00000BF1437BD4680BC704700BF00100240EE
:1011F00080B483B000AF0346FB710C4B00221A7021
:101200000A4B00221A70FB79012B02D0042B04D068
:1012100007E0064B01221A7003E0044B05221A7006
:1012200000BF00BF0C37BD4680BC70472010024095
:1012300080B483B000AF0346FB71044AFB791360AE
:1012400000BF0C37BD4680BC704700BF80044242DF
:1012500080B483B000AF78600549054B1A6A7B689B
:1012600013430B6200BF0C37BD4680BC704700BF04
:101270000010024080B483B000AF0346FB71044A03
:10128000FB79136000BF0C37BD4680BC704700BFC0
:101290003C04424280B487B000AF786000237B6199
:1012A00000233B610023FB600023BB604C4B5B6869
:1012B00003F00C037B617B69042B07D0082B09D05A
:1012C000002B33D17B68474A1A6033E07B68454A7C
:1012D0001A602FE0424B5B6803F470133B61404B94
:1012E0005B6803F48033FB603B699B0C02333B611A
:1012F000FB68002B06D13B693B4A02FB03F27B688B
:101300001A6017E0364B5B6803F40033002B06D0FD
:101310003B69354A02FB03F27B681A600AE03B69CD
:10132000304A02FB03F27B681A6003E07B682D4AB7
:101330001A6000BF2A4B5B6803F0F0037B617B6996
:101340001B097B61294A7B6913441B78DBB2BB60B4
:101350007B681A68BB68DA407B685A60204B5B6820
:1013600003F4E0637B617B691B0A7B611F4A7B6935
:1013700013441B78DBB2BB607B685A68BB68DA40F9
:101380007B689A60164B5B6803F460537B617B69F2
:10139000DB0A7B61154A7B6913441B78DBB2BB60B7
:1013A0007B685A68BB68DA407B68DA600C4B5B6824
:1013B00003F440437B617B699B0B7B610C4A7B6937
:1013C00013441B78DBB2BB607B68DA68BB68B2FB96
:1013D000F3F27B681A6100BF1C37BD4680BC7047C2
:1013E0000010024000127A0000093D0000000020B9
:1013F0001000002080B483B000AF78600B46FB7013
:10140000FB78002B06D00949084B5A697B681343C7
:101410004B6106E00549054B5A697B68DB43134085
:101420004B6100BF0C37BD4680BC704700100240C6
:1014300080B483B000AF78600B46FB70FB78002B64
:1014400006D00949084B9A697B6813438B6106E013
:101450000549054B9A697B68DB4313408B6100BFEC
:101460000C37BD4680BC70470010024080B483B08A
:1014700000AF78600B46FB70FB78002B06D0094963
:10148000084BDA697B681343CB6106E00549054BDD
:10149000DA697B68DB431340CB6100BF0C37BD4684
:1014A00080BC70470010024080B483B000AF786009
:1014B0000B46FB70FB78002B06D00949084BDA6815
:1014C0007B681343CB6006E00549054BDA687B680F
:1014D000DB431340CB6000BF0C37BD4680BC704778
:1014E0000010024080B483B000AF78600B46FB7000
:1014F000FB78002B06D00949084B1A697B68134317
:101500000B6106E00549054B1A697B68DB43134014
:101510000B6100BF0C37BD4680BC70470010024015
:1015200080B483B000AF0346FB71044AFB791360BB
:1015300000BF0C37BD4680BC704700BF400442422C
:1015400080B483B000AF0346FB71044AFB7913609B
:1015500000BF0C37BD4680BC704700BF4C00424204
:1015600080B483B000AF0346FB71044AFB7913706B
:1015700000BF0C37BD4680BC704700BF071002405B
:1015800080B487B000AF0346FB710023FB600023EB
:101590007B610023FB74FB795B09DBB2FB60FB68BA
:1015A000012B03D1124B1B687B6109E0FB68022B06
:1015B00003D10F4B1B6A7B6102E00D4B5B6A7B61C1
:1015C000FB7903F01F03FB607A69FB6822FA03F3DF
:1015D00003F00103002B02D00123FB7401E0002380
:1015E000FB74FB7C18461C37BD4680BC704700BFAF
:1015F0000010024080B400AF044A044B5B6A43F021
:101600008073536200BFBD4680BC7047001002402B
:1016100080B485B000AF0346FB710023FB73084B19
:101620009A68FB791340002B02D00123FB7301E081
:101630000023FB73FB7B18461437BD4680BC704704
:101640000010024080B483B000AF0346FB71044A2F
:10165000FB79137000BF0C37BD4680BC704700BFDC
:101660000A10024080B582B000AF78607B680E4AF5
:1016700093420AD101214FF40010FFF733FF0021FC
:101680004FF40010FFF72EFF09E001214FF4800016
:10169000FFF728FF00214FF48000FFF723FF00BF72
:1016A0000837BD4680BD00BF0054004080B58AB0F9
:1016B00000AF786039600023FB8400237B8404231F
:1016C000BB84574BFB617B689B88FB84FB8C23F0BE
:1016D0003F03FB8407F108031846FFF7DBFD3B6976
:1016E000FB61FB694F4AA2FB03239B0C7B84FA8CB2
:1016F0007B8C1343FB847B68FA8C9A807B681B8805
:101700009BB223F001039AB27B681A800023FB840A
:101710003B681B68444A934215D83B681B685B00D2
:10172000FA69B2FBF3F3BB84BB8C032B01D804230F
:10173000BB84FA8CBB8C1343FB847B8C01339AB241
:101740007B681A8440E03B68DB884BF6FF7293426B
:1017500009D13B681A6813465B001344FA69B2FB6F
:10176000F3F3BB840EE03B681A6813469B001344F6
:101770009A001344FA69B2FBF3F3BB84BB8C43F4C5
:101780008043BB84BB8CC3F30B03002B03D1BB8C06
:1017900043F00103BB84BA8CFB8C13439BB26FEA0A
:1017A00043436FEA5343FB847B8C4FF4967202FBF6
:1017B00003F31E4A82FB03129211DB17D31A9BB26A
:1017C00001339AB27B681A847B68FA8C9A837B68AF
:1017D0001B889BB243F001039AB27B681A807B6836
:1017E0001B88FB84FB8C23F4816323F00203FB84BE
:1017F0003B689A883B685B8913439AB2FB8C13431E
:10180000FB847B68FA8C1A803B689A893B681B8949
:1018100013439AB27B681A8100BF2837BD4680BD4A
:1018200000127A0083DE1B43A0860100D34D6210B4
:1018300080B483B000AF78607B6841F288321A6070
:101840007B6800229A807B684BF6FF72DA807B68A7
:1018500000221A817B6800225A817B684FF4804203
:101860009A8100BF0C37BD4680BC704780B483B0FE
:1018700000AF78600B46FB70FB78002B08D07B68CC
:101880001B889BB243F001039AB27B681A8007E081
:101890007B681B889BB223F001039AB27B681A8095
:1018A00000BF0C37BD4680BC704700BF80B483B01A
:1018B00000AF78600B46FB70FB78002B08D07B688C
:1018C0009B889BB243F400639AB27B689A8007E0DE
:1018D0007B689B889BB223F400639AB27B689A80F2
:1018E00000BF0C37BD4680BC704700BF80B483B0DA
:1018F00000AF78600B46FB70FB78002B08D07B684C
:101900009B889BB243F480539AB27B689A8007E02D
:101910007B689B889BB223F480539AB27B689A8041
:1019200000BF0C37BD4680BC704700BF80B483B099
:1019300000AF78600B46FB70FB78002B08D07B680B
:101940001B889BB243F480739AB27B681A8007E0CD
:101950007B681B889BB223F480739AB27B681A80E1
:1019600000BF0C37BD4680BC704700BF80B483B059
:1019700000AF78600B46FB70FB78002B08D07B68CB
:101980001B889BB243F400739AB27B681A8007E00D
:101990007B681B889BB223F400739AB27B681A8021
:1019A00000BF0C37BD4680BC704700BF80B483B019
:1019B00000AF78600B46FB70FB78002B08D07B688B
:1019C0001B889BB243F480639AB27B681A8007E05D
:1019D0007B681B889BB223F480639AB27B681A8071
:1019E00000BF0C37BD4680BC704700BF80B485B0D7
:1019F00000AF78600B46FB700023FB817B689B89FE
:101A0000FB81FB8923F0FE03FB81FB781BB203F013
:101A1000FE031AB2B7F90E3013431BB2FB817B6889
:101A2000FA899A8100BF1437BD4680BC704700BF59
:101A300080B483B000AF78600B46FB70FB78002B5E
:101A400008D07B689B899BB243F001039AB27B6804
:101A50009A8107E07B689B899BB223F001039AB2CD
:101A60007B689A8100BF0C37BD4680BC704700BFC1
:101A700080B483B000AF78600B46FB70FB78002B1E
:101A800008D07B681B889BB243F040039AB27B6806
:101A90001A8007E07B681B889BB223F040039AB250
:101AA0007B681A8000BF0C37BD4680BC704700BF02
:101AB00080B483B000AF78600B467B8013467B70A8
:101AC0007B78002B08D07B689B889AB27B88134375
:101AD0009AB27B689A8009E07B689B889AB27B887F
:101AE000DB439BB213409AB27B689A8000BF0C37ED
:101AF000BD4680BC704700BF80B483B000AF786043
:101B00000B46FB70FB789AB27B681A8200BF0C37D9
:101B1000BD4680BC704700BF80B483B000AF786022
:101B20007B681B8A9BB2DBB218460C37BD4680BC73
:101B3000704700BF80B483B000AF78600B46FB7085
:101B40001346BB70BB78002B04D0FB7843F0010335
:101B5000FB7003E0FB7823F00103FB70FB789AB283
:101B60007B681A8200BF0C37BD4680BC704700BF3F
:101B700080B485B000AF78600B46FB700023FB603B
:101B80007B68FB60FA78FB681344FB60FB681B888A
:101B90009BB218461437BD4680BC704780B483B0F2
:101BA00000AF78600B46FB70FB78002B0AD07B6897
:101BB0001B889BB26FEA43436FEA53439AB27B6838
:101BC0001A8007E07B681B889BB2C3F30E039AB2AE
:101BD0007B681A8000BF0C37BD4680BC704700BFD1
:101BE00080B483B000AF78600B467B807B88B3F510
:101BF000006F08D17B681B889BB243F400639AB2E4
:101C00007B681A8007E07B681B889BB223F4006323
:101C10009AB27B681A8000BF0C37BD4680BC704703
:101C200080B483B000AF78600B467B807B88B3F5CF
:101C3000005F08D17B681B889BB243F400539AB2C3
:101C40007B681A8007E07B681B889BB223F40053F3
:101C50009AB27B681A8000BF0C37BD4680BC7047C3
:101C600080B483B000AF78600B46FB70FB78002B2C
:101C700008D07B681B889BB243F480539AB27B6880
:101C80001A8007E07B681B889BB223F480539AB2CA
:101C90007B681A8000BF0C37BD4680BC704700BF10
:101CA00080B483B000AF78600B467B807B88B3F54F
:101CB000006F08D17B681B889BB243F400639AB223
:101CC0007B681A8007E07B681B889BB223F4006363
:101CD0009AB27B681A8000BF0C37BD4680BC704743
:101CE00080B483B000AF78600B46FB70FB78002BAC
:101CF00008D07B681B889BB243F020039AB27B68B4
:101D00001A8007E07B681B889BB223F020039AB2FD
:101D10007B681A8000BF0C37BD4680BC704700BF8F
:101D200080B483B000AF78607B681B8B9BB21B0ACA
:101D30009BB2DBB218460C37BD4680BC704700BF73
:101D400080B483B000AF78600B46FB70FB78002B4B
:101D500008D07B681B889BB243F010039AB27B6863
:101D60001A8007E07B681B889BB223F010039AB2AD
:101D70007B681A8000BF0C37BD4680BC704700BF2F
:101D800080B483B000AF78600B46FB70FB78002B0B
:101D900008D17B681B889BB243F080039AB27B68B2
:101DA0001A8007E07B681B889BB223F080039AB2FD
:101DB0007B681A8000BF0C37BD4680BC704700BFEF
:101DC00080B483B000AF78600B467B807B88B3F52E
:101DD000804F08D07B689B8B9BB223F480439AB2E0
:101DE0007B689A8307E07B689B8B9BB243F48043BC
:101DF0009AB27B689A8300BF0C37BD4680BC70479F
:101E000080B487B000AF7860396000233B61002365
:101E1000FB600023BB600023FB757B689B8A9BB241
:101E2000FB607B681B8B9BB2BB60BB681B04BB6009
:101E3000FA68BB68134323F07F433B613A693B6810
:101E40001A403B689A4202D10123FB7501E000234E
:101E5000FB75FB7D18461C37BD4680BC704700BF34
:101E600080B487B000AF786000237B6100233B61C2
:101E70000023FB607B689B8A9BB23B617B681B8B6A
:101E80009BB2FB60FB681B04FB603A69FB68134371
:101E900023F07F437B617B6918461C37BD4680BCBD
:101EA000704700BF80B487B000AF7860396000230E
:101EB000FB7500233B610023FB607B68FB603B6894
:101EC0001B0F3B613B6823F07F433B603B69002B6A
:101ED00003D0FB681433FB6005E03B681B0C3B60E0
:101EE000FB681833FB60FB681A683B681340002BE3
:101EF00002D00123FB7501E00023FB75FB7D184632
:101F00001C37BD4680BC704780B485B000AF786098
:101F100039600023FB603B6823F07F43FB60FB6874
:101F20009BB2DB439AB27B689A8200BF1437BD46EE
:101F300080BC704780B485B000AF78603960002302
:101F4000FB730023BB603B681B0C7A68928892B2DB
:101F5000134003F4E063BB603B6823F07F433B60C6
:101F60007B689B8A9BB21A463B681340002B05D0C6
:101F7000BB68002B02D00123FB7301E00023FB733D
:101F8000FB7B18461437BD4680BC704780B485B0D3
:101F900000AF786039600023FB603B6823F07F432B
:101FA000FB60FB689BB2DB439AB27B689A8200BFFE
:101FB0001437BD4680BC7047002103E00A4B5B58D4
:101FC0004350043109480A4B42189A42F6D3094A51
:101FD00002E0002342F8043B074B9A42F9D300F099
:101FE0000FF801F0D7FD7047989500080000002019
:101FF0001002002010020020A0020020FEE70000D6
:1020000080B500AF154A154B1B6843F00103136000
:102010001249124B5A68124B13404B600F4A0F4B38
:102020001B6823F0847323F4803313600B4A0B4B3B
:102030001B6823F480231360084A084B5B6823F471
:10204000FE035360054B4FF41F029A6000F078F8CE
:10205000044B4FF000629A6000BF80BD0010024048
:102060000000FFF800ED00E080B485B000AF002371
:10207000FB600023BB6000237B602C4B5B6803F09C
:102080000C03FB60FB68042B07D0082B09D0002B46
:1020900033D1274B274A1A6033E0254B254A1A6073
:1020A0002FE0224B5B6803F47013BB601F4B5B682F
:1020B00003F480337B60BB689B0C0233BB607B689E
:1020C000002B06D1BB681C4A02FB03F3184A1360BD
:1020D00017E0164B5B6803F40033002B06D0BB6897
:1020E000154A02FB03F3124A13600AE0BB68114A67
:1020F00002FB03F30E4A136003E00D4B0D4A1A6016
:1021000000BF0A4B5B6803F0F0031B090B4AD35C6A
:10211000DBB2FB60064B1A68FB6822FA03F3044A41
:10212000136000BF1437BD4680BC704700100240EA
:102130001400002000127A0000093D001800002061
:1021400080B500AF00F002F800BF80BD80B483B05E
:1021500000AF00237B6000233B603A4A394B1B6889
:1021600043F480331360374B1B6803F400333B6048
:102170007B6801337B603B68002B03D17B68B3F540
:10218000A06FF0D12F4B1B6803F40033002B02D05B
:1021900001233B6001E000233B603B68012B4BD1F6
:1021A000294A294B1B6843F010031360264A264B2B
:1021B0001B6823F003031360234A234B1B6843F07F
:1021C000020313601F4A1F4B5B6853601D4A1D4B7F
:1021D0005B6853601B4A1B4B5B6843F4806353602E
:1021E000184A184B5B6823F47C135360154A154B4F
:1021F0005B6843F4E8135360124A124B1B6843F0C8
:102200008073136000BF0F4B1B6803F00073002B3B
:10221000F9D00C4A0B4B5B6823F003035360094A67
:10222000084B5B6843F00203536000BF054B5B68DB
:1022300003F00C03082BF9D100BF0C37BD4680BC5E
:10224000704700BF001002400020024080B586B0F9
:1022500000AF01214FF40010FFF708F9154BBB60E8
:102260000023BB814BF6FF73FB8100233B820023DD
:102270007B824FF48043BB8207F1080319460E4866
:10228000FFF714FA01210C48FFF7F0FA01210820AA
:10229000FFF7CEF8C023BB801C23FB710223BB7168
:1022A0003B1D19460548FEF77FFB00BF1837BD46AA
:1022B00080BD00BF801A060000540040000C0140A1
:1022C00080B500AF00BF4FF400310A48FFF7EAFDC8
:1022D0000346002BF7D101210648FFF727FB00BF7B
:1022E00005490448FFF78CFD0346002BF8D000BFDA
:1022F00080BD00BF005400400100030080B500AF66
:1023000001210848FFF732FB00BF07490548FFF7E6
:10231000C9FD0346002BF8D103490248FFF7F4FD3D
:1023200000BF80BD005400401000001080B582B096
:1023300000AF03460A46FB711346BB71BA79FB79BD
:1023400019460F48FFF7F6FBBB79002B08D100BFF9
:102350000C490B48FFF754FD0346002BF8D00AE068
:10236000BB79012B07D100BF07490548FFF748FD9E
:102370000346002BF8D000BF0837BD4680BD00BF24
:1023800000540040820007000200030080B582B0C4
:1023900000AF0346FB71FB7919460748FFF7ACFB1A
:1023A00000BF06490448FFF72BFD0346002BF8D079
:1023B00000BF0837BD4680BD0054004084000700C0
:1023C00080B500AF01210848FFF7F0FA00BF0749C8
:1023D0000548FFF715FD0346002BF8D00248FFF72C
:1023E0009BFB0346184680BD00540040400003009C
:1023F00080B500AF00210848FFF7D8FA00BF0749B1
:102400000548FFF7FDFC0346002BF8D00248FFF714
:1024100083FB0346184680BD005400404000030083
:1024200080B582B000AF03460A46FB711346BB710C
:10243000FFF746FFFB795B00DBB200211846FFF790
:1024400075FFBB791846FFF7A1FFFFF757FF00BFE5
:102450000837BD4680BD00BF80B582B000AF0346DF
:102460003960FB71FFF72CFFFB795B00DBB20121C8
:102470001846FFF75BFFFFF7BBFF03461A463B68B2
:102480001A70FFF73BFF00BF0837BD4680BD00BF95
:1024900080B584B000AFBA607B600346FB730B4627
:1024A000BB73FFF70DFFFB7B5B00DBB2002118461F
:1024B000FFF73CFFBB7B1846FFF768FF012113487D
:1024C000FFF734FAFB7B5B00DBB201211846FFF714
:1024D0002DFF0BE0FFF774FF03461A46BB681A7026
:1024E000BB680133BB607B68013B7B607B68012B71
:1024F000F0D8FFF77DFF03461A46BB681A70FFF756
:10250000FDFE00BF1037BD4680BD00BF0054004037
:1025100080B582B000AF0346FB710B46BB7113461A
:102520007B71FFF7CDFEFB795B00DBB20021184623
:10253000FFF7FCFEBB791846FFF728FF7B791846AA
:10254000FFF724FFFFF7DAFE00BF0837BD4680BD66
:1025500080B582B000AF03463A60FB710B46BB7199
:10256000FFF7AEFEFB795B00DBB200211846FFF7F8
:10257000DDFEBB791846FFF709FFFFF7BFFEFFF747
:102580009FFEFB795B00DBB201211846FFF7CEFE10
:10259000FFF72EFF03461A463B681A70FFF7AEFEA0
:1025A00000BF0837BD4680BD80B582B000AF7860FF
:1025B000144B1B785A1CD1B2124A11701A467B6810
:1025C000D9B2114B99540F4B1B781A460E4B002170
:1025D00099540C4B1B7801330F2B05D87B680A2BC1
:1025E00002D07B68002B0AD1064B00221A70064BE2
:1025F00000221946042000F039F80346002B083762
:10260000BD4680BD3C0200202C02002080B582B077
:1026100000AF78607B6800221946042000F026F89D
:102620000346002B0837BD4680BD00BF80B582B091
:1026300000AF0BE07B68002B08D03B1D1A46002141
:10264000072000F013F87B68DBB20AE03B1D1A4656
:10265000002140F2011000F009F80346002BE9D1F7
:10266000002318460837BD4680BD00BFABBE01E061
:1026700000207047002A00D01060012070470698A3
:1026800001884BF6AB62914202D10430069070474C
:10269000FEE7000080B483B000AF03463960FB71F1
:1026A00097F90730002B0BDA0D49FB7903F00F0384
:1026B000043B3A68D2B21201D2B20B441A7609E056
:1026C000084997F907303A68D2B21201D2B20B44E6
:1026D00083F8002300BF0C37BD4680BC704700BFA5
:1026E00000ED00E000E100E080B582B000AF78606E
:1026F0007B68013BB3F1807F01D301230FE00A4ADD
:102700007B68013B53600F214FF0FF30FFF7C2FFA2
:10271000054B00229A60044B07221A6000231846DA
:102720000837BD4680BD00BF10E000E080B400AFB8
:10273000064B1B68002B04D0044B1B68013B034A6B
:10274000136000BFBD4680BC704700BF4002002040
:1027500080B500AF00BF074B1B68074AA2FB0323ED
:102760009B0C1846FFF7C0FF0346002BF3D100BFB8
:1027700080BD00BF1400002083DE1B4380B483B003
:1027800000AF7860064A7B68136000BF044B1B688B
:10279000002BFBD100BF0C37BD4680BC704700BF8B
:1027A0004002002080B582B000AF786003E04FF4B3
:1027B0007A70FFF7E3FF7B685A1E7A60002BF6D130
:1027C00000BF0837BD4680BD80B400AF094B1B7801
:1027D000002B02D0012B04D007E0074B074A1A60F8
:1027E00003E0054B064A1A6000BF00BFBD4680BC2F
:1027F000704700BF2800002098020020FFEBBF4078
:10280000FFEBBF3F80B400AF114B1B78032B1BD8ED
:1028100001A252F823F000BF29280008312800083F
:1028200039280008412800080A4B0B4A1A600BE0BF
:10283000084B0A4A1A6007E0064B094A1A6003E08F
:10284000044B084A1A6000BF00BFBD4680BC7047F9
:1028500044020020940200200000FA3B00C0234400
:102860000000A4430000244380B400AF134B1B7846
:10287000032B1FD801A252F823F000BF8D280008B7
:1028800097280008A1280008AB2800080C4B4FF03F
:1028900062521A600EE00A4B4FF064521A6009E06F
:1028A000074B4FF066521A6004E0054B4FF0685238
:1028B0001A6000BF00BFBD4680BC704745020020C3
:1028C0009002002080B487B000AFF860B9607A60F1
:1028D0003B60FB687B61BB683A6802FB03F2F96806
:1028E000BB68CB1A796801FB03F31A443B6892FB7F
:1028F000F3F37B617B6918461C37BD4680BC70478B
:1029000080B582B000AF00226B216820FFF700FE87
:102910004548FDF74BFFC820FFF730FFBB1D1A46A7
:1029200075216820FFF714FEBB7919463F48FDF773
:102930003DFFC820FFF722FF01226B216820FFF72F
:10294000E7FD03221A216820FFF7E2FD0422192186
:102950006820FFF7DDFDFB1D1A461B216820FFF7ED
:10296000F7FDFB7923F00203DBB2FB71FB7923F067
:102970001803DBB2FB712E4B1B78DB005AB2FB79DC
:102980005BB213435BB2DBB2FB71FB791A461B21CE
:102990006820FFF7BDFDFB1D1A461C216820FFF7CC
:1029A000D7FDFB7923F01803DBB2FB71214B1B78B9
:1029B000DB005AB2FB795BB213435BB2DBB2FB7153
:1029C000FB791A461C216820FFF7A2FDFB1D1A4661
:1029D0001D216820FFF7BCFDFB7923F00F03DBB25C
:1029E000FB71FB7943F00303DBB2FB71FB791A4601
:1029F0001D216820FFF78CFD222237216820FFF778
:102A000087FD012238216820FFF782FDFFF72CFFA8
:102A1000FFF7F8FEFFF7D8FE6420FFF7AFFE00BF18
:102A20000837BD4680BD00BF88910008A09100080E
:102A3000440200204502002080B586B000AF7860D7
:102A400007F11002062343216820FFF721FD3B7C9C
:102A50001B021AB27B7C1BB213431BB23B81BB7CB3
:102A60001B021AB2FB7C1BB213431BB27B813B7D62
:102A70001B021AB27B7D1BB213431BB2BB81B7F999
:102A800008301A464FF47A7303FB02F3184601F03C
:102A9000EBFD0246214B1B681946104601F038FE3B
:102AA0000346184601F084FF03461BB23B81B7F989
:102AB0000A301A464FF47A7303FB02F3184601F00A
:102AC000D3FD0246154B1B681946104601F020FE47
:102AD0000346184601F06CFF03461BB27B81B7F931
:102AE0000C301A464FF47A7303FB02F3184601F0D8
:102AF000BBFD0246094B1B681946104601F008FE53
:102B00000346184601F054FF03461BB2BB8107F190
:102B100008037B6000BF1837BD4680BD94020020CB
:102B200080B58AB000AF786007F1140206233B211C
:102B30006820FFF7ADFC3B7D1B021AB27B7D1BB208
:102B400013431BB2BB81BB7D1B021AB2FB7D1BB2C0
:102B500013431BB2FB813B7E1B021AB27B7E1BB26E
:102B600013431BB23B82B7F90C301A464FF47A7309
:102B700003FB02F3184601F077FD0246384B1B6851
:102B80001946104601F0C4FD0346184601F010FF37
:102B900003461BB2BB81B7F90E301A464FF47A7365
:102BA00003FB02F3184601F05FFD02462C4B1B6845
:102BB0001946104601F0ACFD0346184601F0F8FE38
:102BC00003461BB2FB81B7F910301A464FF47A73F3
:102BD00003FB02F3184601F047FD0246204B1B6839
:102BE0001946104601F094FD0346184601F0E0FE38
:102BF00003461BB23B8207F10C037B60B7F90C3034
:102C00001846184B196864230F22FFF75BFE7862A1
:102C1000144A7B6A1360B7F90E301846114B596895
:102C200064230F22FFF74EFE38620E4A3B6A536060
:102C3000B7F9103018460B4B996864230F22FFF741
:102C400041FEF861074AFB699360FB693A6A796A59
:102C50000548FDF7ABFD00BF2837BD4680BD00BF6E
:102C60009002002048020020AC91000880B584B09A
:102C700000AF786007F1080300221A609A8007F11C
:102C80000802022377216820FFF702FC07F10803FE
:102C90009A1C02237A216820FFF7FAFB07F1080348
:102CA0001A1D02237D216820FFF7F2FB3B7A1B02ED
:102CB0007A7A1A437B681A607B680433BA7A120204
:102CC000F97A0A431A607B6808333A7B1202797BEF
:102CD0000A431A6000BF1037BD4680BD80B588B07A
:102CE00000AF786007F1180300221A609A80002371
:102CF000FB6000233B6100237B6107F10C03184656
:102D0000FFF7B4FFFA687B681B6823F00103D31A4E
:102D1000FB603A697B6804331B6823F00103D31A14
:102D20003B617A697B6808331B6823F00103D31A7F
:102D30007B61FB681B12DBB23B76FB68DBB27B7608
:102D40003B691B12DBB2BB763B69DBB2FB767B696E
:102D50001B12DBB23B777B69DBB27B773B7E1A468B
:102D600077216820FFF7D4FB7B7E1A467821682004
:102D7000FFF7CEFBBB7E1A467A216820FFF7C8FB1F
:102D8000FB7E1A467B216820FFF7C2FB3B7F1A4679
:102D90007D216820FFF7BCFB7B7F1A467E216820DF
:102DA000FFF7B6FB00BF2037BD4680BD90B599B098
:102DB00000AF7860396001237B65002387F83C30E1
:102DC000002387F83D30002387F83E308323A7F89F
:102DD00052304FF48043A7F8503000233B63002368
:102DE0007B630023BB6300237B620023BB62002361
:102DF000FB620023BB610023FB6100233B620023D5
:102E0000FB6000233B6100237B6180226B216820F3
:102E1000FFF77EFB3220FFF7C5FC01226B21682003
:102E2000FFF776FB00226C216820FFF771FB0F2073
:102E3000FFF7B8FC002238216820FFF769FB002269
:102E400023216820FFF764FB00226B216820FFF735
:102E50005FFB002224216820FFF75AFB00226A2131
:102E60006820FFF755FB0C226A216820FFF750FB12
:102E70000F20FFF797FC01221A216820FFF748FB7B
:102E8000002219216820FFF743FB00221B21682044
:102E9000FFF73EFB00221C216820FFF739FB0F20C3
:102EA000FFF780FC40226A216820FFF731FB78227F
:102EB00023216820FFF72CFB2820FFF773FC00225A
:102EC00023216820FFF724FB07F14002022372212F
:102ED0006820FFF7DDFA97F840301B021AB297F826
:102EE00041301BB213431BB2A7F84E30B7F84E3037
:102EF000A24AA2FB0323DB08A7F84C300023A7F863
:102F00005E305FE007F140020C2374216820FFF778
:102F1000BFFA97F840301B021AB297F841301BB243
:102F200013431BB2FB6097F842301B021AB297F8AA
:102F300043301BB213431BB23B6197F844301B0272
:102F40001AB297F845301BB213431BB27B6197F856
:102F500046301B021AB297F847301BB213431BB21C
:102F6000BB6197F848301B021AB297F849301BB280
:102F700013431BB2FB6197F84A301B021AB297F851
:102F80004B301BB213431BB23B627A6AFB6813449B
:102F90007B62BA6A3B691344BB62FA6A7B69134479
:102FA000FB623A6BBB6913443B637A6BFB69134466
:102FB0007B63BA6B3B6A1344BB63B7F85E30013383
:102FC000A7F85E30B7F85E20B7F84C309A4299D334
:102FD0007A6AB7F84C3092FBF3F37B62BA6AB7F8BF
:102FE0004C3092FBF3F3BB62FA6AB7F84C3092FBB9
:102FF000F3F3FB627B6A1A04B7F8503092FBF3F3E9
:10300000DB027B62BB6A1A04B7F8503092FBF3F321
:10301000DB02BB62FB6A1A04B7F8503092FBF3F391
:10302000DB02FB620023BB6511E0BB6D9B0007F177
:103030006002134453F83C3C1A14BB6D9B0007F12B
:1030400060010B4443F83C2CBB6D0133BB65BB6D89
:10305000022BEADD07F124031846FFF73FFE3B6B26
:103060001A04B7F8523092FBF3F2B7F84C3092FBE7
:10307000F3F33B637B6B1A04B7F8523092FBF3F225
:10308000B7F84C3092FBF3F37B63BB6B1A04B7F8D1
:10309000523092FBF3F2B7F84C3092FBF3F3BB6380
:1030A0003B6B5B42002B00DA03339B101B12DBB23D
:1030B00087F840303B6B5B42002B00DA03339B10F8
:1030C000DBB287F841307B6B5B42002B00DA0333C5
:1030D0009B101B12DBB287F842307B6B5B42002BEC
:1030E00000DA03339B10DBB287F84330BB6B5B42E3
:1030F000002B00DA03339B101B12DBB287F844303D
:10310000BB6B5B42002B00DA03339B10DBB287F80A
:1031100045303B6B184601F0A7FA02463B681A603F
:103120003B681C1D7B6B184601F09EFA034623602A
:103130003B6803F10804BB6B184601F095FA03469F
:1031400023607B6A184601F08FFA02467B681A609A
:103150007B681C1DBB6A184601F086FA0346236093
:103160007B6803F10804FB6A184601F07DFA034608
:10317000236000BF6437BD4690BD00BFABAAAAAABA
:1031800090B583B000AF3A46022341216820FFF793
:103190007FF93B781B021AB27B781BB213431BB238
:1031A000FB80FB88134AA2FB0323DB099BB2184672
:1031B00000F090FE4FF000020F4B00F03FFD034681
:1031C0000C461846214601F025F90346BB80BB8812
:1031D000B42202FB03F3094A82FB03125211DB17EC
:1031E000D31A9BB220337B80B7F9023018460C37D4
:1031F000BD4690BDC3971B62000035401F85EB5153
:10320000B0B59CB000AF07F1580300221A609A8055
:1032100007F1500300221A609A8007F13803002258
:103220001A605A609A60DA601A615A6100233B861C
:1032300000237B860023BB8600233B8500237B8500
:103240000023BB8500233B8400237B840023BB84B5
:1032500000233B8300237B830023BB83002387F869
:103260005F30002219216820FFF752F902221A214B
:103270006820FFF74DF997F85F30DB00DBB21A46A4
:103280001B216820FFF744F902221D216820FFF767
:103290003FF997F85F30DB00DBB21A461C2168204B
:1032A000FFF736F90023FB6676E007F158020623A4
:1032B0003B216820FFF7ECF8B7F928309AB297F86D
:1032C00058301B0219B297F859301BB20B431BB28E
:1032D0009BB213449BB21BB23B85B7F92A309AB21A
:1032E00097F85A301B0219B297F85B301BB20B43A8
:1032F0001BB29BB213449BB21BB27B85B7F92C3037
:103300009AB297F85C301B0219B297F85D301BB285
:103310000B431BB29BB213449BB21BB2BB8507F19C
:103320005802062343216820FFF7B2F8B7F930307E
:103330009AB297F858301B0219B297F859301BB25D
:103340000B431BB29BB213449BB21BB23B86B7F933
:1033500032309AB297F85A301B0219B297F85B30A4
:103360001BB20B431BB29BB213449BB21BB27B86B6
:10337000B7F934309AB297F85C301B0219B297F85B
:103380005D301BB20B431BB29BB213449BB21BB20A
:10339000BB86FB6E0133FB66FB6EC72B85DD00230E
:1033A000BB662CE0BB6E5B0007F17002134433F97F
:1033B000483C664A82FB03129211DB17D31A1AB2F9
:1033C000BB6E5B0007F170010B4423F8482CBB6E09
:1033D0005B0007F17002134433F9403C5B4A82FB07
:1033E00003129211DB17D31A1AB2BB6E5B0007F1FE
:1033F00070010B4423F8402CBB6E0133BB66BB6EDF
:10340000022BCFDDB7F928301946B7F92A301A4612
:10341000B7F92C304E48FDF7C9F9B7F930301946E5
:10342000B7F932301A46B7F934304A48FDF7BEF9D9
:10343000E0221C216820FFF76BF8E0221B216820A6
:10344000FFF766F84FF47A70FFF798F900237B6670
:1034500076E007F1580206233B216820FFF718F8B1
:10346000B7F920309AB297F858301B0219B297F882
:1034700059301BB20B431BB29BB213449BB21BB21D
:103480003B84B7F922309AB297F85A301B0219B22E
:1034900097F85B301BB20B431BB29BB213449BB239
:1034A0001BB27B84B7F924309AB297F85C301B02C8
:1034B00019B297F85D301BB20B431BB29BB2134499
:1034C0009BB21BB2BB8407F158020623432168203C
:1034D000FEF7DEFFB7F918309AB297F858301B02A2
:1034E00019B297F859301BB20B431BB29BB213446D
:1034F0009BB21BB23B83B7F91A309AB297F85A3095
:103500001B0219B297F85B301BB20B431BB29BB284
:1035100013449BB21BB27B83B7F91C309AB297F865
:103520005C301B0219B297F85D301BB20B431BB223
:103530009BB213449BB21BB2BB837B6E01337B6691
:103540007B6EC72B85DD00233B6632E01F85EB5188
:10355000B8910008D49100083B6E5B0007F170023F
:10356000134433F9503CDE4A82FB03129211DB17FD
:10357000D31A1AB23B6E5B0007F170010B4423F8BB
:10358000502C3B6E5B0007F17002134433F9583C3A
:10359000D34A82FB03129211DB17D31A1AB23B6E85
:1035A0005B0007F170010B4423F8582C3B6E01338C
:1035B0003B663B6E022BCFDDB7F920301946B7F9D9
:1035C00022301A46B7F92430C648FDF7EFF8B7F9AC
:1035D00018301946B7F91A301A46B7F91C30C248E4
:1035E000FDF7E4F800221C216820FEF791FF00227D
:1035F0001B216820FEF78CFF4FF47A70FFF7BEF8AE
:1036000007F150031A460D216820FEF7A1FF07F1CC
:10361000500301331A460E216820FEF799FF07F187
:10362000500302331A460F216820FEF791FF07F17D
:10363000500303331A4600216820FEF789FF07F183
:10364000500304331A4601216820FEF781FF07F179
:10365000500305331A4602216820FEF779FF97F8D8
:103660005F3040F63C2202FA03F3184600F0FCFFFC
:103670000346184600F040FC04460D4697F85030CB
:10368000184600F0EDFF0346184600F035FC4FF0F9
:103690000002964B00F0D0FA02460B468EA1D1E90B
:1036A000000104F0B1FB02460B462046294600F01B
:1036B00077FC03460C461846214600F0CBFE034635
:1036C000BB6397F85F3040F63C2202FA03F31846DA
:1036D00000F0CAFF0346184600F00EFC04460D46F3
:1036E00097F85130184600F0BBFF0346184600F02B
:1036F00003FC4FF000027D4B00F09EFA02460B46A1
:1037000075A1D1E9000104F07FFB02460B4620467B
:10371000294600F045FC03460C461846214600F0B9
:1037200099FE0346FB6397F85F3040F63C2202FAAD
:1037300003F3184600F098FF0346184600F0DCFB40
:1037400004460D4697F85230184600F089FF0346AC
:10375000184600F0D1FB4FF00002644B00F06CFA09
:1037600002460B465CA1D1E9000104F04DFB024684
:103770000B462046294600F013FC03460C4618462B
:10378000214600F067FE03463B6497F85F3040F641
:103790003C2202FA03F3184600F066FF034618467F
:1037A00000F0AAFB04460D4697F85330184600F087
:1037B00057FF0346184600F09FFB4FF000024B4BAB
:1037C00000F03AFA02460B4643A1D1E9000104F0A9
:1037D0001BFB02460B462046294600F0E1FB034650
:1037E0000C461846214600F035FE03467B6497F8E8
:1037F0005F3040F63C2202FA03F3184600F034FF33
:103800000346184600F078FB04460D4697F85430FE
:10381000184600F025FF0346184600F06DFB4FF0F8
:103820000002324B00F008FA02460B462AA1D1E909
:10383000000104F0E9FA02460B462046294600F052
:10384000AFFB03460C461846214600F003FE034634
:10385000BB6497F85F3040F63C2202FA03F3184647
:1038600000F002FF0346184600F046FB04460D46F2
:1038700097F85530184600F0F3FE0346184600F05E
:103880003BFB4FF00002194B00F0D6F902460B4605
:1038900011A1D1E9000104F0B7FA02460B46204617
:1038A000294600F07DFB03460C461846214600F0F1
:1038B000D1FD0346FB64B7F920301A46B7F928302A
:1038C000D31A184600F0D0FE0346184600F014FB49
:1038D0004FF000020CE000BF295C8FC2F528F03FDA
:1038E0001F85EB51B8910008D49100080000F03F0B
:1038F000784B00F055FB03460C4625461C46BB6B37
:10390000184600F0F9FA02460B462046294600F018
:1039100071FC03460C461846214600F053FD034651
:103920003B60B7F922301A46B7F92A30D31A184645
:1039300000F09AFE0346184600F0DEFA4FF000024F
:10394000644B00F02DFB03460C4625461C46FB6BE2
:10395000184600F0D1FA02460B462046294600F0F0
:1039600049FC03460C461846214600F02BFD034651
:103970007B60B7F924301A46B7F92C30D31A1846B1
:1039800000F072FE0346184600F0B6FA4FF000024F
:10399000504B00F005FB03460C4625461C463B6C8D
:1039A000184600F0A9FA02460B462046294600F0C8
:1039B00021FC03460C461846214600F003FD034651
:1039C000BB6039687A68BB684348FCF7EFFEB7F91B
:1039D0001E301A46B7F93630D31A184600F044FEA6
:1039E0000346184600F088FA4FF00002394B00F009
:1039F000D7FA03460C4625461C467B6C184600F059
:103A00007BFA02460B462046294600F0F3FB0346AC
:103A10000C461846214600F0D5FC0346FB60B7F97A
:103A200020301A46B7F93830D31A184600F01CFE79
:103A30000346184600F060FA4FF00002254B00F0F4
:103A4000AFFA03460C4625461C46BB6C184600F0F0
:103A500053FA02460B462046294600F0CBFB0346AC
:103A60000C461846214600F0ADFC03463B61B7F911
:103A700022301A46B7F93A30D31A184600F0F4FD4E
:103A80000346184600F038FA4FF00002114B00F0E0
:103A900087FA03460C4625461C46FB6C184600F088
:103AA0002BFA02460B462046294600F0A3FB0346AC
:103AB0000C461846214600F085FC03467B61F968F8
:103AC0003A697B690548FCF771FE00BF7037BD4657
:103AD000B0BD00BF00005940F091000818920008E6
:103AE00080B500AF80226B216820FEF711FD00BF7A
:103AF00080BD00BF80B588B000AF78600023FB6157
:103B000029E007F114031846FFF70AF8B7F90C305B
:103B10009AB2B7F914309BB213449BB21BB2BB816B
:103B2000B7F90E309AB2B7F916309BB213449BB274
:103B30001BB2FB81B7F910309AB2B7F918309BB2BB
:103B400013449BB21BB23B824FF47A70FEF716FE11
:103B5000FB690133FB61FB69C72BD2DDB7F90C3080
:103B60001A46FB6992FBF3F31BB2BB81B7F90E3027
:103B70001A46FB6992FBF3F31BB2FB81B7F91030D5
:103B80001A46FB6992FBF3F31BB23B8200BF20375E
:103B9000BD4680BD2DE9B04388B004AFFEF7D8FD27
:103BA0001E4B1B6819461E48FCF700FEFEF74EFB35
:103BB000FEF7A6FE1B48FFF79DFF1A4B1B68184631
:103BC00000F09AF980468946164B5B68184600F06B
:103BD00093F904460D46134B9B68184600F08CF988
:103BE00002460B46CDE90223CDE9004542464B464D
:103BF0000D48FCF7DBFDFFF7C3FA0346FB81FB89A9
:103C000019460A48FCF7D2FD07F108031846FEF7EB
:103C100013FF3B461846FEF783FFF5E7140000202C
:103C20003C920008600200205C9200088C92000820
:103C300081F0004102E000BF83F0004330B54FEA5D
:103C400041044FEA430594EA050F08BF90EA020FCA
:103C50001FBF54EA000C55EA020C7FEA645C7FEA5D
:103C6000655C00F0E2804FEA5454D4EB5555B8BF80
:103C70006D420CDD2C4480EA020281EA030382EAF1
:103C8000000083EA010180EA020281EA0303362D83
:103C900088BF30BD11F0004F4FEA01314FF4801C56
:103CA0004CEA113102D0404261EB410113F0004F68
:103CB0004FEA03334CEA133302D0524263EB43031F
:103CC00094EA050F00F0A780A4F10104D5F1200EBD
:103CD0000DDB02FA0EFC22FA05F2801841F1000118
:103CE00003FA0EF2801843FA05F359410EE0A5F1EC
:103CF00020050EF1200E012A03FA0EFC28BF4CF01D
:103D0000020C43FA05F3C01851EBE37101F00045D2
:103D100007D54FF0000EDCF1000C7EEB00006EEBDF
:103D20000101B1F5801F1BD3B1F5001F0CD3490869
:103D30005FEA30004FEA3C0C04F101044FEA4452C0
:103D400012F5800F80F09A80BCF1004F08BF5FEA47
:103D5000500C50F1000041EB045141EA050130BD27
:103D60005FEA4C0C404141EB010111F4801FA4F1CA
:103D70000104E9D191F0000F04BF01460020B1FA1F
:103D800081F308BF2033A3F10B03B3F120020CDA57
:103D90000C3208DD02F1140CC2F10C0201FA0CF035
:103DA00021FA02F10CE002F11402D8BFC2F1200C9A
:103DB00001FA02F120FA0CFCDCBF41EA0C01904050
:103DC000E41AA2BF01EB0451294330BD6FEA040499
:103DD0001F3C1CDA0C340EDC04F11404C4F1200284
:103DE00020FA04F001FA02F340EA030021FA04F396
:103DF00045EA030130BDC4F10C04C4F1200220FAED
:103E000002F001FA04F340EA0300294630BD21FA2A
:103E100004F0294630BD94F0000F83F4801306BFF0
:103E200081F480110134013D4EE77FEA645C18BFE4
:103E30007FEA655C29D094EA050F08BF90EA020F7B
:103E400005D054EA000C04BF1946104630BD91EA73
:103E5000030F1EBF0021002030BD5FEA545C05D176
:103E60004000494128BF41F0004130BD14F58004B5
:103E70003CBF01F5801130BD01F0004545F0FE4129
:103E800041F470014FF0000030BD7FEA645C1ABF5E
:103E9000194610467FEA655C1CBF0B46024650EA95
:103EA000013406BF52EA033591EA030F41F40021C1
:103EB00030BD00BF90F0000F04BF0021704730B547
:103EC0004FF4806404F132044FF000054FF000011C
:103ED00050E700BF90F0000F04BF0021704730B5DD
:103EE0004FF4806404F1320410F0004548BF4042B2
:103EF0004FF000013EE700BF42004FEAE2014FEA07
:103F000031014FEA02701FBF12F07F4393F07F4FE1
:103F100081F06051704792F0000F14BF93F07F4F13
:103F2000704730B54FF4607401F0004521F0004156
:103F300020E700BF50EA010208BF704730B54FF0DC
:103F400000050AE050EA010208BF704730B511F0E1
:103F5000004502D5404261EB41014FF4806404F119
:103F600032045FEA915C3FF4DCAE4FF003025FEA9B
:103F7000DC0C18BF03325FEADC0C18BF033202EB23
:103F8000DC02C2F1200300FA03FC20FA02F001FA7D
:103F900003FE40EA0E0021FA02F11444C1E600BF1C
:103FA00070B54FF0FF0C4CF4E06C1CEA11541DBFCF
:103FB0001CEA135594EA0C0F95EA0C0F00F0DEF89A
:103FC0002C4481EA030621EA4C5123EA4C5350EA7F
:103FD000013518BF52EA033541F4801143F48013D0
:103FE00038D0A0FB02CE4FF00005E1FB02E506F061
:103FF0000042E0FB03E54FF00006E1FB03569CF0B6
:10400000000F18BF4EF0010EA4F1FF04B6F5007FBB
:1040100064F5407404D25FEA4E0E6D4146EB06062D
:1040200042EAC62141EA55514FEAC52040EA5E50B6
:104030004FEACE2EB4F1FD0C88BFBCF5E06F1ED860
:10404000BEF1004F08BF5FEA500E50F1000041EB97
:10405000045170BD06F0004646EA010140EA020044
:1040600081EA0301B4EB5C04C2BFD4EB0C0541EA66
:10407000045170BD41F480114FF0000E013C00F37B
:10408000AB8014F1360FDEBF002001F0004170BD9F
:10409000C4F10004203C35DA0C341BDC04F11404B8
:1040A000C4F1200500FA05F320FA04F001FA05F244
:1040B00040EA020001F0004221F0004110EBD37011
:1040C00021FA04F642EB06015EEA430E08BF20EA3D
:1040D000D37070BDC4F10C04C4F1200500FA04F3E0
:1040E00020FA05F001FA04F240EA020001F0004172
:1040F00010EBD37041F100015EEA430E08BF20EAE5
:10410000D37070BDC4F1200500FA05F24EEA020E2C
:1041100020FA04F301FA05F243EA020321FA04F05B
:1041200001F0004121FA04F220EA020000EBD37012
:104130005EEA430E08BF20EAD37070BD94F0000F12
:104140000FD101F00046400041EB010111F4801F46
:1041500008BF013CF7D041EA060195F0000F18BFF7
:10416000704703F00046520043EB030313F4801F33
:1041700008BF013DF7D043EA0603704794EA0C0FED
:104180000CEA135518BF95EA0C0F0CD050EA410603
:1041900018BF52EA4306D1D181EA030101F0004180
:1041A0004FF0000070BD50EA410606BF10461946A8
:1041B00052EA430619D094EA0C0F02D150EA0136B4
:1041C00013D195EA0C0F05D152EA03361CBF1046F5
:1041D00019460AD181EA030101F0004141F0FE4194
:1041E00041F470014FF0000070BD41F0FE4141F418
:1041F000780170BD70B54FF0FF0C4CF4E06C1CEA18
:1042000011541DBF1CEA135594EA0C0F95EA0C0FCC
:1042100000F0A7F8A4EB050481EA030E52EA033587
:104220004FEA013100F088804FEA03334FF08055A8
:1042300045EA131343EA12634FEA022245EA1115D5
:1042400045EA10654FEA00260EF000419D4208BF86
:10425000964244F1FD0404F5407402D25B084FEA33
:104260003202B61A65EB03055B084FEA32024FF4DF
:1042700080104FF4002CB6EB020E75EB030E22BF3C
:10428000B61A754640EA0C005B084FEA3202B6EBFC
:10429000020E75EB030E22BFB61A754640EA5C00AB
:1042A0005B084FEA3202B6EB020E75EB030E22BF3B
:1042B000B61A754640EA9C005B084FEA3202B6EB3C
:1042C000020E75EB030E22BFB61A754640EADC00FB
:1042D00055EA060E18D04FEA051545EA16754FEA5D
:1042E00006164FEAC30343EA52734FEAC2025FEA7B
:1042F0001C1CC0D111F4801F0BD141EA00014FF00A
:1043000000004FF0004CB6E711F4801F04BF0143DA
:104310000020B4F1FD0C88BFBCF5E06F3FF6AFAEF6
:10432000B5EB030C04BFB6EB020C5FEA500C50F186
:10433000000041EB045170BD0EF0004E4EEA113109
:1043400014EB5C04C2BFD4EB0C0541EA045170BD10
:1043500041F480114FF0000E013C90E645EA060E54
:104360008DE60CEA135594EA0C0F08BF95EA0C0F82
:104370003FF43BAF94EA0C0F0AD150EA01347FF4CA
:1043800034AF95EA0C0F7FF425AF104619462CE7A1
:1043900095EA0C0F06D152EA03353FF4FDAE104604
:1043A000194622E750EA410618BF52EA43067FF455
:1043B000C5AE50EA41047FF40DAF52EA43057FF4E5
:1043C000EBAE12E74FEA410212F5001215D211D5F9
:1043D0006FF47873B3EB625212D94FEAC12343F002
:1043E000004343EA505311F0004F23FA02F018BF84
:1043F000404270474FF00000704750EA013005D14D
:1044000011F0004008BF6FF0004070474FF000000F
:10441000704700BF4A0011D212F5001211D20DD51B
:104420006FF47873B3EB62520ED44FEAC12343F0BA
:10443000004343EA505323FA02F070474FF0000064
:10444000704750EA013002D14FF0FF3070474FF013
:10445000000070474FEA4102B2F1E04324BFB3F5D8
:10446000001CDCF1FE5C0DD901F0004C4FEAC002EB
:104470004CEA5070B2F1004F40EB830008BF20F0CF
:104480000100704711F0804F21D113F13872BCBF89
:1044900001F00040704741F480114FEA5252C2F1DE
:1044A0001802C2F1200C10FA0CF320FA02F018BF27
:1044B00040F001004FEAC1234FEAD32303FA0CFC7A
:1044C00040EA0C0023FA02F34FEA4303CCE77FEA09
:1044D000625307D150EA01331EBF4FF0FE4040F453
:1044E0004000704701F0004040F0FE4040F4000002
:1044F000704700BF80F0004002E000BF81F0004143
:1045000042001FBF5FEA410392EA030F7FEA226C79
:104510007FEA236C6AD04FEA1262D2EB1363C1BF09
:10452000D218414048404140B8BF5B42192B88BF78
:10453000704710F0004F40F4000020F07F4018BF9B
:10454000404211F0004F41F4000121F07F4118BFBB
:10455000494292EA030F3FD0A2F1010241FA03FC63
:1045600010EB0C00C3F1200301FA03F100F000434B
:1045700002D5494260EB4000B0F5000F13D3B0F113
:10458000807F06D340084FEA310102F10102FE2A82
:1045900051D2B1F1004F40EBC25008BF20F00100F2
:1045A00040EA03007047490040EB000010F4000FA0
:1045B000A2F10102EDD1B0FA80FCACF1080CB2EB33
:1045C0000C0200FA0CF0AABF00EBC2505242184392
:1045D000BCBFD0401843704792F0000F81F4000137
:1045E00006BF80F400000132013BB5E74FEA41030A
:1045F0007FEA226C18BF7FEA236C21D092EA030F76
:1046000004D092F0000F08BF0846704790EA010FEF
:104610001CBF0020704712F07F4F04D1400028BF1C
:1046200040F00040704712F100723CBF00F50000FE
:10463000704700F0004343F0FE4040F40000704734
:104640007FEA226216BF08467FEA236301464202E0
:1046500006BF5FEA412390EA010F40F480007047F3
:104660004FF0000304E000BF10F0004348BF404299
:104670005FEA000C08BF704743F0964301464FF0D5
:1046800000001CE050EA010208BF70474FF0000331
:104690000AE000BF50EA010208BF704711F0004372
:1046A00002D5404261EB41015FEA010C02BF844642
:1046B0000146002043F0B64308BFA3F18053A3F5A1
:1046C0000003BCFA8CF2083AA3EBC25310DB01FAE8
:1046D00002FC634400FA02FCC2F12002BCF1004F6C
:1046E00020FA02F243EB020008BF20F001007047FD
:1046F00002F1200201FA02FCC2F1200250EA4C0051
:1047000021FA02F243EB020008BF20EADC70704796
:104710004FF0FF0C1CEAD0521EBF1CEAD15392EAA4
:104720000C0F93EA0C0F6FD01A4480EA010C400280
:1047300018BF5FEA41211ED04FF0006343EA5010DA
:1047400043EA5111A0FB01310CF00040B1F5000F1C
:104750003EBF490041EAD3715B0040EA010062F1CB
:104760007F02FD2A1DD8B3F1004F40EBC25008BFB5
:1047700020F00100704790F0000F0CF0004C08BFD3
:1047800049024CEA502040EA51207F3AC2BFD2F1A0
:10479000FF0340EAC250704740F400004FF00003AE
:1047A000013A5DDC12F1190FDCBF00F000407047E8
:1047B000C2F10002410021FA02F1C2F1200200FA26
:1047C00002FC5FEA310040F1000053EA4C0308BFED
:1047D00020EADC70704792F0000F00F0004C02BF3E
:1047E000400010F4000F013AF9D040EA0C0093F0B9
:1047F000000F01F0004C02BF490011F4000F013B13
:10480000F9D041EA0C018FE70CEAD15392EA0C0F80
:1048100018BF93EA0C0F0AD030F0004C18BF31F0EB
:10482000004CD8D180EA010000F00040704790F0C1
:10483000000F17BF90F0004F084691F0000F91F065
:10484000004F14D092EA0C0F01D142020FD193EA2B
:104850000C0F03D14B0218BF084608D180EA0100B3
:1048600000F0004040F0FE4040F40000704740F08F
:10487000FE4040F4400070474FF0FF0C1CEAD0525D
:104880001EBF1CEAD15392EA0C0F93EA0C0F69D0B9
:10489000A2EB030280EA010C49024FEA402037D024
:1048A0004FF0805343EA111143EA10130CF000401B
:1048B0008B4238BF5B0042F17D024FF4000C8B420B
:1048C00024BF5B1A40EA0C00B3EB510F24BFA3EBEB
:1048D000510340EA5C00B3EB910F24BFA3EB9103BB
:1048E00040EA9C00B3EBD10F24BFA3EBD10340EA15
:1048F000DC001B0118BF5FEA1C1CE0D1FD2A3FF65B
:1049000050AF8B4240EBC25008BF20F0010070470F
:104910000CF0004C4CEA50207F32C2BFD2F1FF03B2
:1049200040EAC250704740F400004FF00003013AE3
:1049300037E792F0000F00F0004C02BF400010F487
:10494000000F013AF9D040EA0C0093F0000F01F09B
:10495000004C02BF490011F4000F013BF9D041EABD
:104960000C0195E70CEAD15392EA0C0F08D14202F0
:104970007FF47DAF93EA0C0F7FF470AF084676E7C3
:1049800093EA0C0F04D14B023FF44CAF08466EE79C
:1049900030F0004C18BF31F0004CCAD130F000426A
:1049A0007FF45CAF31F000437FF43CAF5FE700BFC2
:1049B0004FEA4002B2F1FE4F0FD34FF09E03B3EB2C
:1049C00012620DD94FEA002343F0004310F0004F6C
:1049D00023FA02F018BF404270474FF000007047C2
:1049E00012F1610F01D1420205D110F0004008BF61
:1049F0006FF0004070474FF00000704703460244DC
:104A0000934202D003F8011BFAE770472DE9F04703
:104A100088B0149F002B1E461299B8BF03F10043C3
:104A200027F02007B6BF1E4600232D23462F14462D
:104A3000109DDDF84CA00B7003D0452F03D101353C
:104A400001E0032300E0022307AA049206AA0392CE
:104A50008DE828042246334601F05EFC472F80464D
:104A600002D1119BDB0728D5462F08EB050911D190
:104A700098F80030302B0AD100220023204631461E
:104A800004F016FB18B9C5F10105CAF80050DAF8B0
:104A900000309944002200232046314604F008FBF0
:104AA00008B9302202E0CDF81C9006E0079B99453A
:104AB00003D9591C07911A70F8E74046079B159ACD
:104AC000C8EB0303136008B0BDE8F087034673B575
:104AD0000029B8BF494203F8022BB4BF2D222B2274
:104AE000092942701ADD0DF1070216460A2591FBCD
:104AF000F5F405FB1411092C01F1300102F8011D38
:104B00002146F4DC3031541E02F8011CB4421A462E
:104B10000AD214F8012B03F8012BF7E71A463024C8
:104B2000214402F8024B5970101A02B070BD000007
:104B30002DE9F04F91B00C46DDF8688016461F460F
:104B4000054602F0A5FC03681846099300F08CFCAA
:104B500000230E93D8F800300A90073323F00703A0
:104B600003F1080294F81890D4F800B0C8F80020B7
:104B7000D3E90023C4E91223D4F84CA0D4F8488028
:104B80002AF000430B934FF0FF32A74B40460B999E
:104B900004F0C0FAA0B94FF0FF32A34B40460B9986
:104BA00004F09AFA60B9002200234046514604F00E
:104BB00089FA10B12D2384F843309C4B9C4A0AE0BB
:104BC000424653464046514604F0A4FA002800F0FD
:104BD0009281984B984AB9F1470F8CBF90469846FE
:104BE000032323612BF0040323604FF0000A3DE010
:104BF000B9F1670F00F08A81B9F1470F00F08681A3
:104C000023600193636800210DF133020590029245
:104C10000093424653460691CDF81090CDF80CE033
:104C20002846FFF7F3FE09F0DF03472B804600F02C
:104C30008481B9F1650F0D9900F28D8101394A46E1
:104C400004F150000D91FFF741FF0E9A8246831840
:104C5000012A236100F37C812268D10700F1788169
:104C60009DF8333013B12D2384F843300097334639
:104C70000FAA2146284600F09FF9013002D14FF0DB
:104C8000FF3096E123685A0501D4236965E0B9F144
:104C9000650F40F2D580D4E912010022002304F010
:104CA00007FA78B30123654A31462846B8470130F0
:104CB000E5D00E9B0D9A9A420BDB2368D80708D4E7
:104CC00023689B0740F111814FF0000804F1190996
:104CD00006E10A9B099A31462846B8470130CED0F2
:104CE0004FF0000804F11A090E9B013B9845E7DAE2
:104CF00001234A4631462846B8470130BFD008F163
:104D00000108F1E70D9B002B29DC01234B4A3146BA
:104D10002846B8470130B2D00D9B23B90E9B13B97A
:104D20002368D907CCD50A9B099A31462846B8474B
:104D30000130A4D04FF0000904F11A0A0D9B5B4228
:104D4000994509DA0123524631462846B8470130D1
:104D500095D009F10109F1E70E9B4246A7E00E9AB2
:104D6000A36D9A42A8BF1A46002A914606DC4FF06E
:104D7000000A29EAE97904F11A0B11E013463146D9
:104D800042462846B8470130F1D178E701235A4618
:104D900031462846B84701303FF471AF0AF1010AA5
:104DA000A36DC9EB03029245F0DB08EB03090D9AF2
:104DB0000E9B9A420FDB2368DA070CD40E9B0D9AE8
:104DC0009844C9EB08089B1A9845A8BF9846B8F1C3
:104DD000000F08DC0FE00A9B099A31462846B847C5
:104DE0000130EBD14BE743464A4631462846B847A7
:104DF00001303FF444AF4FF0000928EAE87804F1AD
:104E00001A0A09E00123524631462846B8470130C4
:104E10003FF435AF09F101090D9A0E9B9B1AC8EBBF
:104E200003039945EEDB4BE7FFFFEF7FA0920008FD
:104E3000A4920008A8920008AC920008B092000862
:104E40000E9A012A01DCDB0738D5012342463146A0
:104E50002846B84701303FF412AF0A9B099A314601
:104E60002846B84701303FF40AAFD4E912010022C6
:104E7000002304F01DF920B14FF0000804F11A09D5
:104E80000EE00E9B08F10102013B19E001234A46A6
:104E900031462846B84701303FF4F1AE08F1010829
:104EA0000E9B013B9845F1DB534604F1500231461D
:104EB0002846B84701307FF403AFE0E642460123BD
:104EC00031462846B8470130EED1D8E601234A469C
:104ED00031462846B84701303FF4D1AE08F1010809
:104EE000E3680F9A9B1A9845F0DBE0680F9B9842A5
:104EF000B8BF18465DE062680EA8531C0DF1340E71
:104F00004BF480637FF474AE062201E012B90122F3
:104F1000626075E6002106910DF133018DE80C0009
:104F2000236005904246CDF81090CDF80CE0029138
:104F300053462846FFF76AFD80460D9BD81C02DBCE
:104F4000626893421DDDA9F102095FFA89F970E6F2
:104F50000133236184E6B9F1660F14D10029636837
:104F600007DD216113B92268D2071DD501330B4437
:104F700019E013B92268D00701D5023313E00123E9
:104F800011E04FF067090D9B0E9A934205DB2268F2
:104F90002361D10708D5013305E0002BD4BFC3F14D
:104FA00002030123134423610D9B4FF0000AA36504
:104FB00056E611B0BDE8F08F2DE9F04791461F4647
:104FC0000A698B6806469342B8BF1346C9F8003099
:104FD00091F843200C46DDF8208012B10133C9F866
:104FE00000302368990642BFD9F800300233C9F86F
:104FF0000030256815F0060510D104F1190A07E004
:105000000123524639463046C04701301AD0013597
:10501000E368D9F800209B1A9D42F1DB94F84330F5
:105020002268003318BF012392060FD5E118302003
:1050300081F843005A1C94F845102244023382F848
:10504000431003E04FF0FF30BDE8F08704F1430266
:1050500039463046C0470130F4D02268D9F80050B4
:10506000E36802F00602042A08BF5D1B2269A368F8
:105070000CBF25EAE57500259342C4BF9B1AED18C5
:105080004FF000091A344D4509D001232246394614
:105090003046C0470130D5D009F10109F3E70020BF
:1050A000BDE8F0872DE9F04F9A468B6816465A1EE8
:1050B000B2F5AE7F88BF6FF4AE7287B082BF9B1827
:1050C000019340F25D13884696BF00238B600193E5
:1050D0000B684FF0000B43F4F06348F81C3B0746A5
:1050E0000C4645465A46D946CDF810B0CDF80CB01E
:1050F000CDF808B0A168002900F0E58033681B787E
:10510000492B70D016D8392B0DD8312B40D22D2BEE
:1051100046D002D82B2B43D0D5E02E2B00F0928026
:10512000302B23D0CFE0452B00F09580462B77D055
:10513000412B0CE0652B00F08E800AD8542B75D0E3
:1051400002D84E2B34D0BEE0592B75D0612B46D0FF
:10515000B9E06E2B2CD004D8662B61D0692B42D0DD
:10516000B1E0742B62D0792B66D0ACE0206810F4EB
:10517000807F0DD0019B20F08000206009F10109A3
:10518000002B00F08780013B01310193A16081E099
:1051900012EB0B0F40F09780216821F4C07105E0FD
:1051A0002168080640F18F8021F0800121606FE0C6
:1051B0006AB9B9F1000F0CD1216801F4E060B0F5D3
:1051C000E06F06D121F4F0612160012260E0022A43
:1051D0005DD0BBF1010F1ED0BBF1040F1AE0012A14
:1051E00071D1022254E0BBF1000F0ED1B9F1000FD2
:1051F0006CD1216801F4E060B0F5E06F6AD121F470
:10520000F06121604FF0010B42E0BBF1030F02D0CF
:10521000BBF1050F57D10BF1010B5FFA8BFB37E0A8
:10522000BBF1020F4FD14FF0030B31E0BBF1060F82
:1052300049D14FF0070B2BE0BBF1070F43D14FF0E3
:10524000080B25E0216888053DD521F420712160F7
:10525000CDF808901CE0216801F4A060B0F5806FE3
:1052600004D048052FD5B9F1000F33D0880558BFB9
:10527000029821F4F06158BFC0EB090041F4C071FD
:105280005CBF0390049521604FF0000900E0032209
:105290002B700135A368013BA360236901332361AF
:1052A0007368013B002B736003DD336801333360A7
:1052B00020E7D4F880313146384605929847059A60
:1052C00000283FF417AFB9F1000F03D0236823F48F
:1052D00080732360013A012A0ED845450AD9D4F8D3
:1052E0007C31324615F8011D384698472369013B49
:1052F0002361F2E70126ADE00BF1FF33062B22D844
:10530000BBF1020F12D9ABF1030B5FFA8BFBCBEBB6
:10531000050B5D4517D0D4F87C31324615F8011DD8
:10532000384698472369013B2361F2E74545E1D9B7
:10533000D4F87C31324615F8011D38469847236968
:10534000013B2361F2E72368DA052CD55B050CD518
:105350004545CFD9D4F87C31324615F8011D384681
:1053600098472369013B2361F2E715F8011C236983
:10537000652903F1FF3305F1FF3B23610DD045297A
:105380000BD0D4F87C31324638469847236915F85B
:10539000021C013BA5F1020B2361D4F87C3132469B
:1053A000384698475D46266816F0100651D12E7093
:1053B000236803F4C063B3F5806F05D1029BC3EB90
:1053C00009035A4263B915E0039B9BB104990A2370
:1053D00032460131384600F0FFFE039B049DC21A9D
:1053E00004F26F139D4228BF04F5B7751B49284688
:1053F000FBF7F0F900224146384600F055FE2268DE
:10540000804612F0020F8946DAF8003003D01A1DE8
:10541000CAF8002006E012F0040503F10402CAF8FD
:10542000002003D01B68C3E900890EE01F68024614
:105430000B4603F06FFE18B1284600F011F803E0A8
:1054400040464946FFF706F83860E3680133E360F9
:1054500000E00026304607B0BDE8F08FB2920008A9
:10546000004870470000C07F034613F8012B002A54
:10547000FBD1181A013870472DE9F0410F469046CC
:1054800002F0FEFA04460D46B8F1000F11D0C7F342
:105490000A53C3F16B03002B0BDD1B0503F17F5592
:1054A000002405F5401522462B46FEF779FDBDE8A0
:1054B000F08120462946BDE8F08100000000000090
:1054C0002DE9F04F1F469FB00023824638461A93BD
:1054D0000691159201F0D9FF06460068FFF7C4FF58
:1054E0000446069B4FF000084FF000091993199BE2
:1054F0001A780D2A05D8092A13D2002A00F09681BD
:1055000011E02B2A04D02D2A04D0202A0BD108E048
:10551000002200E001220E925A1C19925B7823B9F6
:1055200084E10133E2E700230E93199D2B78302BA1
:105530005DD16B78582B01D0782B4DD10E9B029703
:1055400001931AAB00939E4A1BAB19A9504601F078
:10555000C6FC10F00706044600F07185062E05D142
:105560000135002319950E9300F069BD1A9A3AB1DE
:1055700035211CA802F06BFB1A99504601F0F0FF90
:10558000062E22D8DFE806F0040D08181D0D0400D1
:105590004FF00009C84618E0DDF87080DDF874901F
:1055A00013E01D9B1B9A23F4801302F23342DDF8B3
:1055B000708043EA025908E0DFF808924FF00008D3
:1055C00003E06FF000494FF0FF38210740F13785C5
:1055D00049F0004900F033BD199B5A1C19925B78C1
:1055E000302BF9D0002B00F02A85012300E00023A6
:1055F0000893199B0A22099300239B460593049361
:1056000019980578A5F13003D9B209290ED8049963
:1056100001300829C9BF059902FB0B3B02FB01338E
:105620000593049B199001330493E9E722463168FE
:1056300002F0C6FB28B100202B460246049D01461D
:105640004DE0199B1A191992049A1B5D002A3FD14B
:105650001046302B05D1199B01305A1C19925B78EA
:10566000F7E7A3F13102082A3FD8199A09920246B6
:1056700000200546303B00F1010123D00A442946B1
:105680002E180A24B1420CD001314F1E082F02DC23
:1056900004FB0BFBF6E71029DEBF059F6743059768
:1056A000F0E72844082800F1010503DC0A2101FB8A
:1056B0000B3B06E0102DDFBF05980A2101FB0033EC
:1056C00005930021199B581C19905B78084601E04E
:1056D0000246049DA3F130010929CBD90121652B94
:1056E00001D0452B54D16DB904E0652B40F0B58451
:1056F0000022012128B9089B002B00F09780054665
:1057000000E00025199B069301331993069B5B78F3
:105710002B2B06D02D2B02D00024079408E0012368
:1057200000E000230793069B02331993069B9B78A6
:10573000A3F13004092C29D8302B04D1199B5C1C0F
:1057400019945B78F8E7A3F13104082C20D8A3F171
:105750003007199B4FF00A0E1E46199B5C1C1994CA
:105760005B78A3F1300CBCF1090F03D80EFB0737AF
:10577000303FF2E7A41B082C44F61F6402DCBC4255
:10578000A8BF3C46079E26B1644202E0069C1994DD
:105790000024002D54D1002840F05184089A002A9A
:1057A00040F04D84002941D14E2B20D002DC492B02
:1057B0000AD03BE0692B07D06E2B18D036E000BF33
:1057C000E09200080000F07FAB4919A801F0B9FD94
:1057D00060B3199BA949013B19A8199301F0B1FDC8
:1057E00010B9199B01331993DFF8AC921AE0A44960
:1057F00019A801F0A6FDC8B1199B1B78282B0FD161
:105800001CAAA04919A801F0AFFD052808D11D9BCD
:10581000DDF8708043F0FF4949F4E00900F00FBC67
:10582000DFF878924FF0000800F009BC069B19934E
:10583000159B002B00F00E8400230E9300F001BC9A
:10584000049BA71A002B08BF2B462C46102D584648
:10585000A8BF10240493FEF72DFB092C804689462F
:1058600013DD894B03EBC40353E91223FEF798FBC6
:10587000804605988946FEF71DFB02460B464046CA
:105880004946FEF7DBF9804689460F2D33DC002FB1
:1058900000F0D58322DD162F07DC7B4D424605EB59
:1058A000C7014B46D1E9000113E0C5F125039F4232
:1058B00021DC754CC5F10F0504EBC5017D1B42468B
:1058C000D1E900014B4604EBC504FEF769FBD4E9BE
:1058D0000023FEF765FB80468946B0E317F1160FFB
:1058E00009DB694D4046A5EBC703D3E900234946D0
:1058F000FEF780FCEFE72C1B3C44002C5DDD14F030
:105900000F010AD0604B424603EBC101D1E900010F
:105910004B46FEF745FB8046894634F00F0400F005
:10592000C180B4F59A7F0FDD4FF0000BCDF810B0B9
:10593000CDF81CB0CDF818B02223CAF80030DFF83B
:1059400058914FF0000889E14046494600234F4EE8
:1059500024110593012C0CDDE20704D5D6E90023C0
:10596000FEF71EFB0123059A6410013205920836EA
:10597000F0E70BB180468946444B059AA9F154796A
:1059800003EBC201D1E9000142464B46FEF708FB9A
:1059900021F0004389460A461B0D3D491B058B42F9
:1059A0008046C1D8A1F580118B4286BFDFF8F09008
:1059B0004FF0FF3802F1547974E073D0644214F070
:1059C0000F020AD0304B404603EBC2034946D3E9ED
:1059D0000023FEF70FFC80468946241162D01F2C5D
:1059E00008DD4FF0000BCDF810B0CDF81CB0CDF8AD
:1059F00018B02CE14046494614F0100F0CBF0023AC
:105A00006A23244E05930023002C09DDE20704D508
:105A1000D6E90023FEF7C4FA012364100836F3E741
:105A20000BB180468946059BEBB1C9F30A53C3F11C
:105A30006B03002B494616DD1F2B0EDD342BDEBF1A
:105A4000203B4FF0FF3202FA03F34FF00008CCBFC7
:105A50004FF05C7903EA010905E04FF0FF3202FAEA
:105A600003F303EA0808002200234046494603F0F6
:105A70001FFB0028B5D117E0A59200080B93000882
:105A8000AD920008F492000820930008E893000803
:105A90000000A07CB89200080000F07F0000F8FF32
:105AA000FFFFEF7F00230593CDF800B02B46049A4B
:105AB0000999504601F0A6FD079000283FF434AF45
:105AC000002FC7F10003A8BF00230F934FF0000B76
:105AD00027EAE7731493CDF810B0079B5046596836
